{"contracts/Marketplace.sol":{"Marketplace":{"abi":[{"inputs":[{"internalType":"uint256","name":"_feePercent","type":"uint256"}],"stateMutability":"nonpayable","type":"constructor"},{"inputs":[],"name":"feeAccount","outputs":[{"internalType":"address payable","name":"","type":"address"}],"stateMutability":"view","type":"function"},{"inputs":[],"name":"feePercent","outputs":[{"internalType":"uint256","name":"","type":"uint256"}],"stateMutability":"view","type":"function"},{"inputs":[],"name":"itemCount","outputs":[{"internalType":"uint256","name":"","type":"uint256"}],"stateMutability":"view","type":"function"},{"inputs":[{"internalType":"uint256","name":"","type":"uint256"}],"name":"items","outputs":[{"internalType":"uint256","name":"itemId","type":"uint256"},{"internalType":"contract IERC721","name":"nft","type":"address"},{"internalType":"uint256","name":"tokenId","type":"uint256"},{"internalType":"uint256","name":"price","type":"uint256"},{"internalType":"address payable","name":"seller","type":"address"},{"internalType":"bool","name":"sold","type":"bool"}],"stateMutability":"view","type":"function"}],"evm":{"bytecode":{"linkReferences":{},"object":"60c060405234801561001057600080fd5b506040516104be3803806104be833981810160405281019061003291906100b7565b60016000819055503373ffffffffffffffffffffffffffffffffffffffff1660808173ffffffffffffffffffffffffffffffffffffffff16815250508060a08181525050506100e4565b600080fd5b6000819050919050565b61009481610081565b811461009f57600080fd5b50565b6000815190506100b18161008b565b92915050565b6000602082840312156100cd576100cc61007c565b5b60006100db848285016100a2565b91505092915050565b60805160a0516103b6610108600039600061010c0152600060e201526103b66000f3fe608060405234801561001057600080fd5b506004361061004c5760003560e01c806365e17c9d146100515780636bfb0d011461006f5780637fd6f15c1461008d578063bfb231d2146100ab575b600080fd5b6100596100e0565b60405161006691906101f8565b60405180910390f35b610077610104565b604051610084919061022c565b60405180910390f35b61009561010a565b6040516100a2919061022c565b60405180910390f35b6100c560048036038101906100c09190610278565b61012e565b6040516100d79695949392919061031f565b60405180910390f35b7f000000000000000000000000000000000000000000000000000000000000000081565b60015481565b7f000000000000000000000000000000000000000000000000000000000000000081565b60026020528060005260406000206000915090508060000154908060010160009054906101000a900473ffffffffffffffffffffffffffffffffffffffff16908060020154908060030154908060040160009054906101000a900473ffffffffffffffffffffffffffffffffffffffff16908060040160149054906101000a900460ff16905086565b600073ffffffffffffffffffffffffffffffffffffffff82169050919050565b60006101e2826101b7565b9050919050565b6101f2816101d7565b82525050565b600060208201905061020d60008301846101e9565b92915050565b6000819050919050565b61022681610213565b82525050565b6000602082019050610241600083018461021d565b92915050565b600080fd5b61025581610213565b811461026057600080fd5b50565b6000813590506102728161024c565b92915050565b60006020828403121561028e5761028d610247565b5b600061029c84828501610263565b91505092915050565b6000819050919050565b60006102ca6102c56102c0846101b7565b6102a5565b6101b7565b9050919050565b60006102dc826102af565b9050919050565b60006102ee826102d1565b9050919050565b6102fe816102e3565b82525050565b60008115159050919050565b61031981610304565b82525050565b600060c082019050610334600083018961021d565b61034160208301886102f5565b61034e604083018761021d565b61035b606083018661021d565b61036860808301856101e9565b61037560a0830184610310565b97965050505050505056fea26469706673582212208e03ca7efef9959e5521cb4f3cc8096624909865076a4bb832acef06fa51a6da64736f6c63430008180033","opcodes":"PUSH1 0xC0 PUSH1 0x40 MSTORE CALLVALUE DUP1 ISZERO PUSH2 0x10 JUMPI PUSH1 0x0 DUP1 REVERT JUMPDEST POP PUSH1 0x40 MLOAD PUSH2 0x4BE CODESIZE SUB DUP1 PUSH2 0x4BE DUP4 CODECOPY DUP2 DUP2 ADD PUSH1 0x40 MSTORE DUP2 ADD SWAP1 PUSH2 0x32 SWAP2 SWAP1 PUSH2 0xB7 JUMP JUMPDEST PUSH1 0x1 PUSH1 0x0 DUP2 SWAP1 SSTORE POP CALLER PUSH20 0xFFFFFFFFFFFFFFFFFFFFFFFFFFFFFFFFFFFFFFFF AND PUSH1 0x80 DUP2 PUSH20 0xFFFFFFFFFFFFFFFFFFFFFFFFFFFFFFFFFFFFFFFF AND DUP2 MSTORE POP POP DUP1 PUSH1 0xA0 DUP2 DUP2 MSTORE POP POP POP PUSH2 0xE4 JUMP JUMPDEST PUSH1 0x0 DUP1 REVERT JUMPDEST PUSH1 0x0 DUP2 SWAP1 POP SWAP2 SWAP1 POP JUMP JUMPDEST PUSH2 0x94 DUP2 PUSH2 0x81 JUMP JUMPDEST DUP2 EQ PUSH2 0x9F JUMPI PUSH1 0x0 DUP1 REVERT JUMPDEST POP JUMP JUMPDEST PUSH1 0x0 DUP2 MLOAD SWAP1 POP PUSH2 0xB1 DUP2 PUSH2 0x8B JUMP JUMPDEST SWAP3 SWAP2 POP POP JUMP JUMPDEST PUSH1 0x0 PUSH1 0x20 DUP3 DUP5 SUB SLT ISZERO PUSH2 0xCD JUMPI PUSH2 0xCC PUSH2 0x7C JUMP JUMPDEST JUMPDEST PUSH1 0x0 PUSH2 0xDB DUP5 DUP3 DUP6 ADD PUSH2 0xA2 JUMP JUMPDEST SWAP2 POP POP SWAP3 SWAP2 POP POP JUMP JUMPDEST PUSH1 0x80 MLOAD PUSH1 0xA0 MLOAD PUSH2 0x3B6 PUSH2 0x108 PUSH1 0x0 CODECOPY PUSH1 0x0 PUSH2 0x10C ADD MSTORE PUSH1 0x0 PUSH1 0xE2 ADD MSTORE PUSH2 0x3B6 PUSH1 0x0 RETURN INVALID PUSH1 0x80 PUSH1 0x40 MSTORE CALLVALUE DUP1 ISZERO PUSH2 0x10 JUMPI PUSH1 0x0 DUP1 REVERT JUMPDEST POP PUSH1 0x4 CALLDATASIZE LT PUSH2 0x4C JUMPI PUSH1 0x0 CALLDATALOAD PUSH1 0xE0 SHR DUP1 PUSH4 0x65E17C9D EQ PUSH2 0x51 JUMPI DUP1 PUSH4 0x6BFB0D01 EQ PUSH2 0x6F JUMPI DUP1 PUSH4 0x7FD6F15C EQ PUSH2 0x8D JUMPI DUP1 PUSH4 0xBFB231D2 EQ PUSH2 0xAB JUMPI JUMPDEST PUSH1 0x0 DUP1 REVERT JUMPDEST PUSH2 0x59 PUSH2 0xE0 JUMP JUMPDEST PUSH1 0x40 MLOAD PUSH2 0x66 SWAP2 SWAP1 PUSH2 0x1F8 JUMP JUMPDEST PUSH1 0x40 MLOAD DUP1 SWAP2 SUB SWAP1 RETURN JUMPDEST PUSH2 0x77 PUSH2 0x104 JUMP JUMPDEST PUSH1 0x40 MLOAD PUSH2 0x84 SWAP2 SWAP1 PUSH2 0x22C JUMP JUMPDEST PUSH1 0x40 MLOAD DUP1 SWAP2 SUB SWAP1 RETURN JUMPDEST PUSH2 0x95 PUSH2 0x10A JUMP JUMPDEST PUSH1 0x40 MLOAD PUSH2 0xA2 SWAP2 SWAP1 PUSH2 0x22C JUMP JUMPDEST PUSH1 0x40 MLOAD DUP1 SWAP2 SUB SWAP1 RETURN JUMPDEST PUSH2 0xC5 PUSH1 0x4 DUP1 CALLDATASIZE SUB DUP2 ADD SWAP1 PUSH2 0xC0 SWAP2 SWAP1 PUSH2 0x278 JUMP JUMPDEST PUSH2 0x12E JUMP JUMPDEST PUSH1 0x40 MLOAD PUSH2 0xD7 SWAP7 SWAP6 SWAP5 SWAP4 SWAP3 SWAP2 SWAP1 PUSH2 0x31F JUMP JUMPDEST PUSH1 0x40 MLOAD DUP1 SWAP2 SUB SWAP1 RETURN JUMPDEST PUSH32 0x0 DUP2 JUMP JUMPDEST PUSH1 0x1 SLOAD DUP2 JUMP JUMPDEST PUSH32 0x0 DUP2 JUMP JUMPDEST PUSH1 0x2 PUSH1 0x20 MSTORE DUP1 PUSH1 0x0 MSTORE PUSH1 0x40 PUSH1 0x0 KECCAK256 PUSH1 0x0 SWAP2 POP SWAP1 POP DUP1 PUSH1 0x0 ADD SLOAD SWAP1 DUP1 PUSH1 0x1 ADD PUSH1 0x0 SWAP1 SLOAD SWAP1 PUSH2 0x100 EXP SWAP1 DIV PUSH20 0xFFFFFFFFFFFFFFFFFFFFFFFFFFFFFFFFFFFFFFFF AND SWAP1 DUP1 PUSH1 0x2 ADD SLOAD SWAP1 DUP1 PUSH1 0x3 ADD SLOAD SWAP1 DUP1 PUSH1 0x4 ADD PUSH1 0x0 SWAP1 SLOAD SWAP1 PUSH2 0x100 EXP SWAP1 DIV PUSH20 0xFFFFFFFFFFFFFFFFFFFFFFFFFFFFFFFFFFFFFFFF AND SWAP1 DUP1 PUSH1 0x4 ADD PUSH1 0x14 SWAP1 SLOAD SWAP1 PUSH2 0x100 EXP SWAP1 DIV PUSH1 0xFF AND SWAP1 POP DUP7 JUMP JUMPDEST PUSH1 0x0 PUSH20 0xFFFFFFFFFFFFFFFFFFFFFFFFFFFFFFFFFFFFFFFF DUP3 AND SWAP1 POP SWAP2 SWAP1 POP JUMP JUMPDEST PUSH1 0x0 PUSH2 0x1E2 DUP3 PUSH2 0x1B7 JUMP JUMPDEST SWAP1 POP SWAP2 SWAP1 POP JUMP JUMPDEST PUSH2 0x1F2 DUP2 PUSH2 0x1D7 JUMP JUMPDEST DUP3 MSTORE POP POP JUMP JUMPDEST PUSH1 0x0 PUSH1 0x20 DUP3 ADD SWAP1 POP PUSH2 0x20D PUSH1 0x0 DUP4 ADD DUP5 PUSH2 0x1E9 JUMP JUMPDEST SWAP3 SWAP2 POP POP JUMP JUMPDEST PUSH1 0x0 DUP2 SWAP1 POP SWAP2 SWAP1 POP JUMP JUMPDEST PUSH2 0x226 DUP2 PUSH2 0x213 JUMP JUMPDEST DUP3 MSTORE POP POP JUMP JUMPDEST PUSH1 0x0 PUSH1 0x20 DUP3 ADD SWAP1 POP PUSH2 0x241 PUSH1 0x0 DUP4 ADD DUP5 PUSH2 0x21D JUMP JUMPDEST SWAP3 SWAP2 POP POP JUMP JUMPDEST PUSH1 0x0 DUP1 REVERT JUMPDEST PUSH2 0x255 DUP2 PUSH2 0x213 JUMP JUMPDEST DUP2 EQ PUSH2 0x260 JUMPI PUSH1 0x0 DUP1 REVERT JUMPDEST POP JUMP JUMPDEST PUSH1 0x0 DUP2 CALLDATALOAD SWAP1 POP PUSH2 0x272 DUP2 PUSH2 0x24C JUMP JUMPDEST SWAP3 SWAP2 POP POP JUMP JUMPDEST PUSH1 0x0 PUSH1 0x20 DUP3 DUP5 SUB SLT ISZERO PUSH2 0x28E JUMPI PUSH2 0x28D PUSH2 0x247 JUMP JUMPDEST JUMPDEST PUSH1 0x0 PUSH2 0x29C DUP5 DUP3 DUP6 ADD PUSH2 0x263 JUMP JUMPDEST SWAP2 POP POP SWAP3 SWAP2 POP POP JUMP JUMPDEST PUSH1 0x0 DUP2 SWAP1 POP SWAP2 SWAP1 POP JUMP JUMPDEST PUSH1 0x0 PUSH2 0x2CA PUSH2 0x2C5 PUSH2 0x2C0 DUP5 PUSH2 0x1B7 JUMP JUMPDEST PUSH2 0x2A5 JUMP JUMPDEST PUSH2 0x1B7 JUMP JUMPDEST SWAP1 POP SWAP2 SWAP1 POP JUMP JUMPDEST PUSH1 0x0 PUSH2 0x2DC DUP3 PUSH2 0x2AF JUMP JUMPDEST SWAP1 POP SWAP2 SWAP1 POP JUMP JUMPDEST PUSH1 0x0 PUSH2 0x2EE DUP3 PUSH2 0x2D1 JUMP JUMPDEST SWAP1 POP SWAP2 SWAP1 POP JUMP JUMPDEST PUSH2 0x2FE DUP2 PUSH2 0x2E3 JUMP JUMPDEST DUP3 MSTORE POP POP JUMP JUMPDEST PUSH1 0x0 DUP2 ISZERO ISZERO SWAP1 POP SWAP2 SWAP1 POP JUMP JUMPDEST PUSH2 0x319 DUP2 PUSH2 0x304 JUMP JUMPDEST DUP3 MSTORE POP POP JUMP JUMPDEST PUSH1 0x0 PUSH1 0xC0 DUP3 ADD SWAP1 POP PUSH2 0x334 PUSH1 0x0 DUP4 ADD DUP10 PUSH2 0x21D JUMP JUMPDEST PUSH2 0x341 PUSH1 0x20 DUP4 ADD DUP9 PUSH2 0x2F5 JUMP JUMPDEST PUSH2 0x34E PUSH1 0x40 DUP4 ADD DUP8 PUSH2 0x21D JUMP JUMPDEST PUSH2 0x35B PUSH1 0x60 DUP4 ADD DUP7 PUSH2 0x21D JUMP JUMPDEST PUSH2 0x368 PUSH1 0x80 DUP4 ADD DUP6 PUSH2 0x1E9 JUMP JUMPDEST PUSH2 0x375 PUSH1 0xA0 DUP4 ADD DUP5 PUSH2 0x310 JUMP JUMPDEST SWAP8 SWAP7 POP POP POP POP POP POP POP JUMP INVALID LOG2 PUSH5 0x6970667358 0x22 SLT KECCAK256 DUP15 SUB 0xCA PUSH31 0xFEF9959E5521CB4F3CC8096624909865076A4BB832ACEF06FA51A6DA64736F PUSH13 0x63430008180033000000000000 "},"methodIdentifiers":{"feeAccount()":"65e17c9d","feePercent()":"7fd6f15c","itemCount()":"6bfb0d01","items(uint256)":"bfb231d2"}}}}}