{
  "_format": "hh-sol-artifact-1",
  "contractName": "Marketplace",
  "sourceName": "contracts/Marketplace.sol",
  "abi": [
    {
      "inputs": [
        {
          "internalType": "uint256",
          "name": "_feePercent",
          "type": "uint256"
        }
      ],
      "stateMutability": "nonpayable",
      "type": "constructor"
    },
    {
      "anonymous": false,
      "inputs": [
        {
          "indexed": false,
          "internalType": "uint256",
          "name": "itemId",
          "type": "uint256"
        },
        {
          "indexed": true,
          "internalType": "address",
          "name": "nft",
          "type": "address"
        },
        {
          "indexed": false,
          "internalType": "uint256",
          "name": "tokenId",
          "type": "uint256"
        },
        {
          "indexed": false,
          "internalType": "uint256",
          "name": "price",
          "type": "uint256"
        },
        {
          "indexed": true,
          "internalType": "address",
          "name": "seller",
          "type": "address"
        }
      ],
      "name": "Offered",
      "type": "event"
    },
    {
      "inputs": [],
      "name": "feeAccount",
      "outputs": [
        {
          "internalType": "address payable",
          "name": "",
          "type": "address"
        }
      ],
      "stateMutability": "view",
      "type": "function"
    },
    {
      "inputs": [],
      "name": "feePercent",
      "outputs": [
        {
          "internalType": "uint256",
          "name": "",
          "type": "uint256"
        }
      ],
      "stateMutability": "view",
      "type": "function"
    },
    {
      "inputs": [],
      "name": "itemCount",
      "outputs": [
        {
          "internalType": "uint256",
          "name": "",
          "type": "uint256"
        }
      ],
      "stateMutability": "view",
      "type": "function"
    },
    {
      "inputs": [
        {
          "internalType": "uint256",
          "name": "",
          "type": "uint256"
        }
      ],
      "name": "items",
      "outputs": [
        {
          "internalType": "uint256",
          "name": "itemId",
          "type": "uint256"
        },
        {
          "internalType": "contract IERC721",
          "name": "nft",
          "type": "address"
        },
        {
          "internalType": "uint256",
          "name": "tokenId",
          "type": "uint256"
        },
        {
          "internalType": "uint256",
          "name": "price",
          "type": "uint256"
        },
        {
          "internalType": "address payable",
          "name": "seller",
          "type": "address"
        },
        {
          "internalType": "bool",
          "name": "sold",
          "type": "bool"
        }
      ],
      "stateMutability": "view",
      "type": "function"
    },
    {
      "inputs": [
        {
          "internalType": "contract IERC721",
          "name": "_nft",
          "type": "address"
        },
        {
          "internalType": "uint256",
          "name": "_tokenId",
          "type": "uint256"
        },
        {
          "internalType": "uint256",
          "name": "_price",
          "type": "uint256"
        }
      ],
      "name": "makeItem",
      "outputs": [],
      "stateMutability": "nonpayable",
      "type": "function"
    }
  ],
  "bytecode": "0x60c060405234801561001057600080fd5b50604051610a37380380610a37833981810160405281019061003291906100b7565b60016000819055503373ffffffffffffffffffffffffffffffffffffffff1660808173ffffffffffffffffffffffffffffffffffffffff16815250508060a08181525050506100e4565b600080fd5b6000819050919050565b61009481610081565b811461009f57600080fd5b50565b6000815190506100b18161008b565b92915050565b6000602082840312156100cd576100cc61007c565b5b60006100db848285016100a2565b91505092915050565b60805160a05161092e610109600039600061013301526000610109015261092e6000f3fe608060405234801561001057600080fd5b50600436106100575760003560e01c806365e17c9d1461005c5780636bfb0d011461007a5780637fd6f15c14610098578063bfb231d2146100b6578063fa00afc7146100eb575b600080fd5b610064610107565b60405161007191906104f0565b60405180910390f35b61008261012b565b60405161008f9190610524565b60405180910390f35b6100a0610131565b6040516100ad9190610524565b60405180910390f35b6100d060048036038101906100cb9190610570565b610155565b6040516100e296959493929190610617565b60405180910390f35b610105600480360381019061010091906106c8565b6101de565b005b7f000000000000000000000000000000000000000000000000000000000000000081565b60015481565b7f000000000000000000000000000000000000000000000000000000000000000081565b60026020528060005260406000206000915090508060000154908060010160009054906101000a900473ffffffffffffffffffffffffffffffffffffffff16908060020154908060030154908060040160009054906101000a900473ffffffffffffffffffffffffffffffffffffffff16908060040160149054906101000a900460ff16905086565b600260005403610223576040517f08c379a000000000000000000000000000000000000000000000000000000000815260040161021a90610778565b60405180910390fd5b60026000819055506000811161026e576040517f08c379a0000000000000000000000000000000000000000000000000000000008152600401610265906107e4565b60405180910390fd5b6001600081548092919061028190610833565b91905055508273ffffffffffffffffffffffffffffffffffffffff166323b872dd3330856040518463ffffffff1660e01b81526004016102c39392919061088a565b600060405180830381600087803b1580156102dd57600080fd5b505af11580156102f1573d6000803e3d6000fd5b505050506040518060c0016040528060015481526020018473ffffffffffffffffffffffffffffffffffffffff1681526020018381526020018281526020013373ffffffffffffffffffffffffffffffffffffffff168152602001600015158152506002600060015481526020019081526020016000206000820151816000015560208201518160010160006101000a81548173ffffffffffffffffffffffffffffffffffffffff021916908373ffffffffffffffffffffffffffffffffffffffff160217905550604082015181600201556060820151816003015560808201518160040160006101000a81548173ffffffffffffffffffffffffffffffffffffffff021916908373ffffffffffffffffffffffffffffffffffffffff16021790555060a08201518160040160146101000a81548160ff0219169083151502179055509050503373ffffffffffffffffffffffffffffffffffffffff168373ffffffffffffffffffffffffffffffffffffffff167f655a0cf9c8db81512be9a76dc1c5ae5380b8816ce6ad659cd61b715e2999d59a600154858560405161049a939291906108c1565b60405180910390a36001600081905550505050565b600073ffffffffffffffffffffffffffffffffffffffff82169050919050565b60006104da826104af565b9050919050565b6104ea816104cf565b82525050565b600060208201905061050560008301846104e1565b92915050565b6000819050919050565b61051e8161050b565b82525050565b60006020820190506105396000830184610515565b92915050565b600080fd5b61054d8161050b565b811461055857600080fd5b50565b60008135905061056a81610544565b92915050565b6000602082840312156105865761058561053f565b5b60006105948482850161055b565b91505092915050565b6000819050919050565b60006105c26105bd6105b8846104af565b61059d565b6104af565b9050919050565b60006105d4826105a7565b9050919050565b60006105e6826105c9565b9050919050565b6105f6816105db565b82525050565b60008115159050919050565b610611816105fc565b82525050565b600060c08201905061062c6000830189610515565b61063960208301886105ed565b6106466040830187610515565b6106536060830186610515565b61066060808301856104e1565b61066d60a0830184610608565b979650505050505050565b6000610683826104af565b9050919050565b600061069582610678565b9050919050565b6106a58161068a565b81146106b057600080fd5b50565b6000813590506106c28161069c565b92915050565b6000806000606084860312156106e1576106e061053f565b5b60006106ef868287016106b3565b93505060206107008682870161055b565b92505060406107118682870161055b565b9150509250925092565b600082825260208201905092915050565b7f5265656e7472616e637947756172643a207265656e7472616e742063616c6c00600082015250565b6000610762601f8361071b565b915061076d8261072c565b602082019050919050565b6000602082019050818103600083015261079181610755565b9050919050565b7f56616c75652073686f756c642062652067726561746572207468616e20300000600082015250565b60006107ce601e8361071b565b91506107d982610798565b602082019050919050565b600060208201905081810360008301526107fd816107c1565b9050919050565b7f4e487b7100000000000000000000000000000000000000000000000000000000600052601160045260246000fd5b600061083e8261050b565b91507fffffffffffffffffffffffffffffffffffffffffffffffffffffffffffffffff82036108705761086f610804565b5b600182019050919050565b61088481610678565b82525050565b600060608201905061089f600083018661087b565b6108ac602083018561087b565b6108b96040830184610515565b949350505050565b60006060820190506108d66000830186610515565b6108e36020830185610515565b6108f06040830184610515565b94935050505056fea2646970667358221220d3b15022324cc5bf3522b66d49a590c795651d844874c363b172600fbfda8ed864736f6c63430008180033",
  "linkReferences": {},
  "deployedLinkReferences": {}
}