{
  "_format": "hh-sol-artifact-1",
  "contractName": "NFT",
  "sourceName": "contracts/NFT.sol",
  "abi": [
    {
      "inputs": [],
      "stateMutability": "nonpayable",
      "type": "constructor"
    },
    {
      "anonymous": false,
      "inputs": [
        {
          "indexed": true,
          "internalType": "address",
          "name": "owner",
          "type": "address"
        },
        {
          "indexed": true,
          "internalType": "address",
          "name": "approved",
          "type": "address"
        },
        {
          "indexed": true,
          "internalType": "uint256",
          "name": "tokenId",
          "type": "uint256"
        }
      ],
      "name": "Approval",
      "type": "event"
    },
    {
      "anonymous": false,
      "inputs": [
        {
          "indexed": true,
          "internalType": "address",
          "name": "owner",
          "type": "address"
        },
        {
          "indexed": true,
          "internalType": "address",
          "name": "operator",
          "type": "address"
        },
        {
          "indexed": false,
          "internalType": "bool",
          "name": "approved",
          "type": "bool"
        }
      ],
      "name": "ApprovalForAll",
      "type": "event"
    },
    {
      "anonymous": false,
      "inputs": [
        {
          "indexed": true,
          "internalType": "address",
          "name": "from",
          "type": "address"
        },
        {
          "indexed": true,
          "internalType": "address",
          "name": "to",
          "type": "address"
        },
        {
          "indexed": true,
          "internalType": "uint256",
          "name": "tokenId",
          "type": "uint256"
        }
      ],
      "name": "Transfer",
      "type": "event"
    },
    {
      "inputs": [
        {
          "internalType": "address",
          "name": "to",
          "type": "address"
        },
        {
          "internalType": "uint256",
          "name": "tokenId",
          "type": "uint256"
        }
      ],
      "name": "approve",
      "outputs": [],
      "stateMutability": "nonpayable",
      "type": "function"
    },
    {
      "inputs": [
        {
          "internalType": "address",
          "name": "owner",
          "type": "address"
        }
      ],
      "name": "balanceOf",
      "outputs": [
        {
          "internalType": "uint256",
          "name": "",
          "type": "uint256"
        }
      ],
      "stateMutability": "view",
      "type": "function"
    },
    {
      "inputs": [
        {
          "internalType": "uint256",
          "name": "tokenId",
          "type": "uint256"
        }
      ],
      "name": "getApproved",
      "outputs": [
        {
          "internalType": "address",
          "name": "",
          "type": "address"
        }
      ],
      "stateMutability": "view",
      "type": "function"
    },
    {
      "inputs": [
        {
          "internalType": "address",
          "name": "owner",
          "type": "address"
        },
        {
          "internalType": "address",
          "name": "operator",
          "type": "address"
        }
      ],
      "name": "isApprovedForAll",
      "outputs": [
        {
          "internalType": "bool",
          "name": "",
          "type": "bool"
        }
      ],
      "stateMutability": "view",
      "type": "function"
    },
    {
      "inputs": [
        {
          "internalType": "string",
          "name": "_tokenURI",
          "type": "string"
        }
      ],
      "name": "mint",
      "outputs": [],
      "stateMutability": "nonpayable",
      "type": "function"
    },
    {
      "inputs": [],
      "name": "name",
      "outputs": [
        {
          "internalType": "string",
          "name": "",
          "type": "string"
        }
      ],
      "stateMutability": "view",
      "type": "function"
    },
    {
      "inputs": [
        {
          "internalType": "uint256",
          "name": "tokenId",
          "type": "uint256"
        }
      ],
      "name": "ownerOf",
      "outputs": [
        {
          "internalType": "address",
          "name": "",
          "type": "address"
        }
      ],
      "stateMutability": "view",
      "type": "function"
    },
    {
      "inputs": [
        {
          "internalType": "address",
          "name": "from",
          "type": "address"
        },
        {
          "internalType": "address",
          "name": "to",
          "type": "address"
        },
        {
          "internalType": "uint256",
          "name": "tokenId",
          "type": "uint256"
        }
      ],
      "name": "safeTransferFrom",
      "outputs": [],
      "stateMutability": "nonpayable",
      "type": "function"
    },
    {
      "inputs": [
        {
          "internalType": "address",
          "name": "from",
          "type": "address"
        },
        {
          "internalType": "address",
          "name": "to",
          "type": "address"
        },
        {
          "internalType": "uint256",
          "name": "tokenId",
          "type": "uint256"
        },
        {
          "internalType": "bytes",
          "name": "_data",
          "type": "bytes"
        }
      ],
      "name": "safeTransferFrom",
      "outputs": [],
      "stateMutability": "nonpayable",
      "type": "function"
    },
    {
      "inputs": [
        {
          "internalType": "address",
          "name": "operator",
          "type": "address"
        },
        {
          "internalType": "bool",
          "name": "approved",
          "type": "bool"
        }
      ],
      "name": "setApprovalForAll",
      "outputs": [],
      "stateMutability": "nonpayable",
      "type": "function"
    },
    {
      "inputs": [
        {
          "internalType": "bytes4",
          "name": "interfaceId",
          "type": "bytes4"
        }
      ],
      "name": "supportsInterface",
      "outputs": [
        {
          "internalType": "bool",
          "name": "",
          "type": "bool"
        }
      ],
      "stateMutability": "view",
      "type": "function"
    },
    {
      "inputs": [],
      "name": "symbol",
      "outputs": [
        {
          "internalType": "string",
          "name": "",
          "type": "string"
        }
      ],
      "stateMutability": "view",
      "type": "function"
    },
    {
      "inputs": [],
      "name": "tokenId",
      "outputs": [
        {
          "internalType": "uint256",
          "name": "",
          "type": "uint256"
        }
      ],
      "stateMutability": "view",
      "type": "function"
    },
    {
      "inputs": [
        {
          "internalType": "uint256",
          "name": "tokenId",
          "type": "uint256"
        }
      ],
      "name": "tokenURI",
      "outputs": [
        {
          "internalType": "string",
          "name": "",
          "type": "string"
        }
      ],
      "stateMutability": "view",
      "type": "function"
    },
    {
      "inputs": [
        {
          "internalType": "address",
          "name": "from",
          "type": "address"
        },
        {
          "internalType": "address",
          "name": "to",
          "type": "address"
        },
        {
          "internalType": "uint256",
          "name": "tokenId",
          "type": "uint256"
        }
      ],
      "name": "transferFrom",
      "outputs": [],
      "stateMutability": "nonpayable",
      "type": "function"
    }
  ],
  "bytecode": "0x60806040523480156200001157600080fd5b506040518060400160405280600681526020017f4d595f4e465400000000000000000000000000000000000000000000000000008152506040518060400160405280600281526020017f4d4e00000000000000000000000000000000000000000000000000000000000081525081600090816200008f919062000324565b508060019081620000a1919062000324565b5050506200040b565b600081519050919050565b7f4e487b7100000000000000000000000000000000000000000000000000000000600052604160045260246000fd5b7f4e487b7100000000000000000000000000000000000000000000000000000000600052602260045260246000fd5b600060028204905060018216806200012c57607f821691505b602082108103620001425762000141620000e4565b5b50919050565b60008190508160005260206000209050919050565b60006020601f8301049050919050565b600082821b905092915050565b600060088302620001ac7fffffffffffffffffffffffffffffffffffffffffffffffffffffffffffffffff826200016d565b620001b886836200016d565b95508019841693508086168417925050509392505050565b6000819050919050565b6000819050919050565b600062000205620001ff620001f984620001d0565b620001da565b620001d0565b9050919050565b6000819050919050565b6200022183620001e4565b6200023962000230826200020c565b8484546200017a565b825550505050565b600090565b6200025062000241565b6200025d81848462000216565b505050565b5b8181101562000285576200027960008262000246565b60018101905062000263565b5050565b601f821115620002d4576200029e8162000148565b620002a9846200015d565b81016020851015620002b9578190505b620002d1620002c8856200015d565b83018262000262565b50505b505050565b600082821c905092915050565b6000620002f960001984600802620002d9565b1980831691505092915050565b6000620003148383620002e6565b9150826002028217905092915050565b6200032f82620000aa565b67ffffffffffffffff8111156200034b576200034a620000b5565b5b62000357825462000113565b6200036482828562000289565b600060209050601f8311600181146200039c576000841562000387578287015190505b62000393858262000306565b86555062000403565b601f198416620003ac8662000148565b60005b82811015620003d657848901518255600182019150602085019450602081019050620003af565b86831015620003f65784890151620003f2601f891682620002e6565b8355505b6001600288020188555050505b505050505050565b612db8806200041b6000396000f3fe608060405234801561001057600080fd5b50600436106100f55760003560e01c80636352211e11610097578063b88d4fde11610066578063b88d4fde14610284578063c87b56dd146102a0578063d85d3d27146102d0578063e985e9c5146102ec576100f5565b80636352211e146101ea57806370a082311461021a57806395d89b411461024a578063a22cb46514610268576100f5565b8063095ea7b3116100d3578063095ea7b31461017857806317d70f7c1461019457806323b872dd146101b257806342842e0e146101ce576100f5565b806301ffc9a7146100fa57806306fdde031461012a578063081812fc14610148575b600080fd5b610114600480360381019061010f91906118dc565b61031c565b6040516101219190611924565b60405180910390f35b6101326103fe565b60405161013f91906119cf565b60405180910390f35b610162600480360381019061015d9190611a27565b610490565b60405161016f9190611a95565b60405180910390f35b610192600480360381019061018d9190611adc565b610515565b005b61019c61062c565b6040516101a99190611b2b565b60405180910390f35b6101cc60048036038101906101c79190611b46565b610632565b005b6101e860048036038101906101e39190611b46565b610692565b005b61020460048036038101906101ff9190611a27565b6106b2565b6040516102119190611a95565b60405180910390f35b610234600480360381019061022f9190611b99565b610763565b6040516102419190611b2b565b60405180910390f35b61025261081a565b60405161025f91906119cf565b60405180910390f35b610282600480360381019061027d9190611bf2565b6108ac565b005b61029e60048036038101906102999190611d67565b6108c2565b005b6102ba60048036038101906102b59190611a27565b610924565b6040516102c791906119cf565b60405180910390f35b6102ea60048036038101906102e59190611e8b565b610a75565b005b61030660048036038101906103019190611ed4565b610aa8565b6040516103139190611924565b60405180910390f35b60007f80ac58cd000000000000000000000000000000000000000000000000000000007bffffffffffffffffffffffffffffffffffffffffffffffffffffffff1916827bffffffffffffffffffffffffffffffffffffffffffffffffffffffff191614806103e757507f5b5e139f000000000000000000000000000000000000000000000000000000007bffffffffffffffffffffffffffffffffffffffffffffffffffffffff1916827bffffffffffffffffffffffffffffffffffffffffffffffffffffffff1916145b806103f757506103f682610b3c565b5b9050919050565b60606000805461040d90611f43565b80601f016020809104026020016040519081016040528092919081815260200182805461043990611f43565b80156104865780601f1061045b57610100808354040283529160200191610486565b820191906000526020600020905b81548152906001019060200180831161046957829003601f168201915b5050505050905090565b600061049b82610ba6565b6104da576040517f08c379a00000000000000000000000000000000000000000000000000000000081526004016104d190611fe6565b60405180910390fd5b6004600083815260200190815260200160002060009054906101000a900473ffffffffffffffffffffffffffffffffffffffff169050919050565b6000610520826106b2565b90508073ffffffffffffffffffffffffffffffffffffffff168373ffffffffffffffffffffffffffffffffffffffff1603610590576040517f08c379a000000000000000000000000000000000000000000000000000000000815260040161058790612078565b60405180910390fd5b8073ffffffffffffffffffffffffffffffffffffffff166105af610c12565b73ffffffffffffffffffffffffffffffffffffffff1614806105de57506105dd816105d8610c12565b610aa8565b5b61061d576040517f08c379a00000000000000000000000000000000000000000000000000000000081526004016106149061210a565b60405180910390fd5b6106278383610c1a565b505050565b60075481565b61064361063d610c12565b82610cd3565b610682576040517f08c379a00000000000000000000000000000000000000000000000000000000081526004016106799061219c565b60405180910390fd5b61068d838383610db1565b505050565b6106ad838383604051806020016040528060008152506108c2565b505050565b6000806002600084815260200190815260200160002060009054906101000a900473ffffffffffffffffffffffffffffffffffffffff169050600073ffffffffffffffffffffffffffffffffffffffff168173ffffffffffffffffffffffffffffffffffffffff160361075a576040517f08c379a00000000000000000000000000000000000000000000000000000000081526004016107519061222e565b60405180910390fd5b80915050919050565b60008073ffffffffffffffffffffffffffffffffffffffff168273ffffffffffffffffffffffffffffffffffffffff16036107d3576040517f08c379a00000000000000000000000000000000000000000000000000000000081526004016107ca906122c0565b60405180910390fd5b600360008373ffffffffffffffffffffffffffffffffffffffff1673ffffffffffffffffffffffffffffffffffffffff168152602001908152602001600020549050919050565b60606001805461082990611f43565b80601f016020809104026020016040519081016040528092919081815260200182805461085590611f43565b80156108a25780601f10610877576101008083540402835291602001916108a2565b820191906000526020600020905b81548152906001019060200180831161088557829003601f168201915b5050505050905090565b6108be6108b7610c12565b8383611017565b5050565b6108d36108cd610c12565b83610cd3565b610912576040517f08c379a00000000000000000000000000000000000000000000000000000000081526004016109099061219c565b60405180910390fd5b61091e84848484611183565b50505050565b606061092f82610ba6565b61096e576040517f08c379a000000000000000000000000000000000000000000000000000000000815260040161096590612352565b60405180910390fd5b600060066000848152602001908152602001600020805461098e90611f43565b80601f01602080910402602001604051908101604052809291908181526020018280546109ba90611f43565b8015610a075780601f106109dc57610100808354040283529160200191610a07565b820191906000526020600020905b8154815290600101906020018083116109ea57829003601f168201915b505050505090506000610a186111df565b90506000815103610a2d578192505050610a70565b600082511115610a62578082604051602001610a4a9291906123ae565b60405160208183030381529060405292505050610a70565b610a6b846111f6565b925050505b919050565b60076000815480929190610a8890612401565b9190505550610a993360075461129d565b610aa5600754826112bb565b50565b6000600560008473ffffffffffffffffffffffffffffffffffffffff1673ffffffffffffffffffffffffffffffffffffffff16815260200190815260200160002060008373ffffffffffffffffffffffffffffffffffffffff1673ffffffffffffffffffffffffffffffffffffffff16815260200190815260200160002060009054906101000a900460ff16905092915050565b60007f01ffc9a7000000000000000000000000000000000000000000000000000000007bffffffffffffffffffffffffffffffffffffffffffffffffffffffff1916827bffffffffffffffffffffffffffffffffffffffffffffffffffffffff1916149050919050565b60008073ffffffffffffffffffffffffffffffffffffffff166002600084815260200190815260200160002060009054906101000a900473ffffffffffffffffffffffffffffffffffffffff1673ffffffffffffffffffffffffffffffffffffffff1614159050919050565b600033905090565b816004600083815260200190815260200160002060006101000a81548173ffffffffffffffffffffffffffffffffffffffff021916908373ffffffffffffffffffffffffffffffffffffffff160217905550808273ffffffffffffffffffffffffffffffffffffffff16610c8d836106b2565b73ffffffffffffffffffffffffffffffffffffffff167f8c5be1e5ebec7d5bd14f71427d1e84f3dd0314c0f7b2291e5b200ac8c7c3b92560405160405180910390a45050565b6000610cde82610ba6565b610d1d576040517f08c379a0000000000000000000000000000000000000000000000000000000008152600401610d14906124bb565b60405180910390fd5b6000610d28836106b2565b90508073ffffffffffffffffffffffffffffffffffffffff168473ffffffffffffffffffffffffffffffffffffffff161480610d9757508373ffffffffffffffffffffffffffffffffffffffff16610d7f84610490565b73ffffffffffffffffffffffffffffffffffffffff16145b80610da85750610da78185610aa8565b5b91505092915050565b8273ffffffffffffffffffffffffffffffffffffffff16610dd1826106b2565b73ffffffffffffffffffffffffffffffffffffffff1614610e27576040517f08c379a0000000000000000000000000000000000000000000000000000000008152600401610e1e9061254d565b60405180910390fd5b600073ffffffffffffffffffffffffffffffffffffffff168273ffffffffffffffffffffffffffffffffffffffff1603610e96576040517f08c379a0000000000000000000000000000000000000000000000000000000008152600401610e8d906125df565b60405180910390fd5b610ea1838383611328565b610eac600082610c1a565b6001600360008573ffffffffffffffffffffffffffffffffffffffff1673ffffffffffffffffffffffffffffffffffffffff1681526020019081526020016000206000828254610efc91906125ff565b925050819055506001600360008473ffffffffffffffffffffffffffffffffffffffff1673ffffffffffffffffffffffffffffffffffffffff1681526020019081526020016000206000828254610f539190612633565b92505081905550816002600083815260200190815260200160002060006101000a81548173ffffffffffffffffffffffffffffffffffffffff021916908373ffffffffffffffffffffffffffffffffffffffff160217905550808273ffffffffffffffffffffffffffffffffffffffff168473ffffffffffffffffffffffffffffffffffffffff167fddf252ad1be2c89b69c2b068fc378daa952ba7f163c4a11628f55a4df523b3ef60405160405180910390a461101283838361132d565b505050565b8173ffffffffffffffffffffffffffffffffffffffff168373ffffffffffffffffffffffffffffffffffffffff1603611085576040517f08c379a000000000000000000000000000000000000000000000000000000000815260040161107c906126b3565b60405180910390fd5b80600560008573ffffffffffffffffffffffffffffffffffffffff1673ffffffffffffffffffffffffffffffffffffffff16815260200190815260200160002060008473ffffffffffffffffffffffffffffffffffffffff1673ffffffffffffffffffffffffffffffffffffffff16815260200190815260200160002060006101000a81548160ff0219169083151502179055508173ffffffffffffffffffffffffffffffffffffffff168373ffffffffffffffffffffffffffffffffffffffff167f17307eab39ab6107e8899845ad3d59bd9653f200f220920489ca2b5937696c31836040516111769190611924565b60405180910390a3505050565b61118e848484610db1565b61119a84848484611332565b6111d9576040517f08c379a00000000000000000000000000000000000000000000000000000000081526004016111d090612745565b60405180910390fd5b50505050565b606060405180602001604052806000815250905090565b606061120182610ba6565b611240576040517f08c379a0000000000000000000000000000000000000000000000000000000008152600401611237906127d7565b60405180910390fd5b600061124a6111df565b9050600081511161126a5760405180602001604052806000815250611295565b80611274846114b9565b6040516020016112859291906123ae565b6040516020818303038152906040525b915050919050565b6112b7828260405180602001604052806000815250611619565b5050565b6112c482610ba6565b611303576040517f08c379a00000000000000000000000000000000000000000000000000000000081526004016112fa90612869565b60405180910390fd5b806006600084815260200190815260200160002090816113239190612a35565b505050565b505050565b505050565b60006113538473ffffffffffffffffffffffffffffffffffffffff16611674565b156114ac578373ffffffffffffffffffffffffffffffffffffffff1663150b7a0261137c610c12565b8786866040518563ffffffff1660e01b815260040161139e9493929190612b5c565b6020604051808303816000875af19250505080156113da57506040513d601f19601f820116820180604052508101906113d79190612bbd565b60015b61145c573d806000811461140a576040519150601f19603f3d011682016040523d82523d6000602084013e61140f565b606091505b506000815103611454576040517f08c379a000000000000000000000000000000000000000000000000000000000815260040161144b90612745565b60405180910390fd5b805181602001fd5b63150b7a0260e01b7bffffffffffffffffffffffffffffffffffffffffffffffffffffffff1916817bffffffffffffffffffffffffffffffffffffffffffffffffffffffff1916149150506114b1565b600190505b949350505050565b606060008203611500576040518060400160405280600181526020017f30000000000000000000000000000000000000000000000000000000000000008152509050611614565b600082905060005b6000821461153257808061151b90612401565b915050600a8261152b9190612c19565b9150611508565b60008167ffffffffffffffff81111561154e5761154d611c3c565b5b6040519080825280601f01601f1916602001820160405280156115805781602001600182028036833780820191505090505b5090505b6000851461160d5760018261159991906125ff565b9150600a856115a89190612c4a565b60306115b49190612633565b60f81b8183815181106115ca576115c9612c7b565b5b60200101907effffffffffffffffffffffffffffffffffffffffffffffffffffffffffffff1916908160001a905350600a856116069190612c19565b9450611584565b8093505050505b919050565b6116238383611697565b6116306000848484611332565b61166f576040517f08c379a000000000000000000000000000000000000000000000000000000000815260040161166690612745565b60405180910390fd5b505050565b6000808273ffffffffffffffffffffffffffffffffffffffff163b119050919050565b600073ffffffffffffffffffffffffffffffffffffffff168273ffffffffffffffffffffffffffffffffffffffff1603611706576040517f08c379a00000000000000000000000000000000000000000000000000000000081526004016116fd90612cf6565b60405180910390fd5b61170f81610ba6565b1561174f576040517f08c379a000000000000000000000000000000000000000000000000000000000815260040161174690612d62565b60405180910390fd5b61175b60008383611328565b6001600360008473ffffffffffffffffffffffffffffffffffffffff1673ffffffffffffffffffffffffffffffffffffffff16815260200190815260200160002060008282546117ab9190612633565b92505081905550816002600083815260200190815260200160002060006101000a81548173ffffffffffffffffffffffffffffffffffffffff021916908373ffffffffffffffffffffffffffffffffffffffff160217905550808273ffffffffffffffffffffffffffffffffffffffff16600073ffffffffffffffffffffffffffffffffffffffff167fddf252ad1be2c89b69c2b068fc378daa952ba7f163c4a11628f55a4df523b3ef60405160405180910390a461186c6000838361132d565b5050565b6000604051905090565b600080fd5b600080fd5b60007fffffffff0000000000000000000000000000000000000000000000000000000082169050919050565b6118b981611884565b81146118c457600080fd5b50565b6000813590506118d6816118b0565b92915050565b6000602082840312156118f2576118f161187a565b5b6000611900848285016118c7565b91505092915050565b60008115159050919050565b61191e81611909565b82525050565b60006020820190506119396000830184611915565b92915050565b600081519050919050565b600082825260208201905092915050565b60005b8381101561197957808201518184015260208101905061195e565b60008484015250505050565b6000601f19601f8301169050919050565b60006119a18261193f565b6119ab818561194a565b93506119bb81856020860161195b565b6119c481611985565b840191505092915050565b600060208201905081810360008301526119e98184611996565b905092915050565b6000819050919050565b611a04816119f1565b8114611a0f57600080fd5b50565b600081359050611a21816119fb565b92915050565b600060208284031215611a3d57611a3c61187a565b5b6000611a4b84828501611a12565b91505092915050565b600073ffffffffffffffffffffffffffffffffffffffff82169050919050565b6000611a7f82611a54565b9050919050565b611a8f81611a74565b82525050565b6000602082019050611aaa6000830184611a86565b92915050565b611ab981611a74565b8114611ac457600080fd5b50565b600081359050611ad681611ab0565b92915050565b60008060408385031215611af357611af261187a565b5b6000611b0185828601611ac7565b9250506020611b1285828601611a12565b9150509250929050565b611b25816119f1565b82525050565b6000602082019050611b406000830184611b1c565b92915050565b600080600060608486031215611b5f57611b5e61187a565b5b6000611b6d86828701611ac7565b9350506020611b7e86828701611ac7565b9250506040611b8f86828701611a12565b9150509250925092565b600060208284031215611baf57611bae61187a565b5b6000611bbd84828501611ac7565b91505092915050565b611bcf81611909565b8114611bda57600080fd5b50565b600081359050611bec81611bc6565b92915050565b60008060408385031215611c0957611c0861187a565b5b6000611c1785828601611ac7565b9250506020611c2885828601611bdd565b9150509250929050565b600080fd5b600080fd5b7f4e487b7100000000000000000000000000000000000000000000000000000000600052604160045260246000fd5b611c7482611985565b810181811067ffffffffffffffff82111715611c9357611c92611c3c565b5b80604052505050565b6000611ca6611870565b9050611cb28282611c6b565b919050565b600067ffffffffffffffff821115611cd257611cd1611c3c565b5b611cdb82611985565b9050602081019050919050565b82818337600083830152505050565b6000611d0a611d0584611cb7565b611c9c565b905082815260208101848484011115611d2657611d25611c37565b5b611d31848285611ce8565b509392505050565b600082601f830112611d4e57611d4d611c32565b5b8135611d5e848260208601611cf7565b91505092915050565b60008060008060808587031215611d8157611d8061187a565b5b6000611d8f87828801611ac7565b9450506020611da087828801611ac7565b9350506040611db187828801611a12565b925050606085013567ffffffffffffffff811115611dd257611dd161187f565b5b611dde87828801611d39565b91505092959194509250565b600067ffffffffffffffff821115611e0557611e04611c3c565b5b611e0e82611985565b9050602081019050919050565b6000611e2e611e2984611dea565b611c9c565b905082815260208101848484011115611e4a57611e49611c37565b5b611e55848285611ce8565b509392505050565b600082601f830112611e7257611e71611c32565b5b8135611e82848260208601611e1b565b91505092915050565b600060208284031215611ea157611ea061187a565b5b600082013567ffffffffffffffff811115611ebf57611ebe61187f565b5b611ecb84828501611e5d565b91505092915050565b60008060408385031215611eeb57611eea61187a565b5b6000611ef985828601611ac7565b9250506020611f0a85828601611ac7565b9150509250929050565b7f4e487b7100000000000000000000000000000000000000000000000000000000600052602260045260246000fd5b60006002820490506001821680611f5b57607f821691505b602082108103611f6e57611f6d611f14565b5b50919050565b7f4552433732313a20617070726f76656420717565727920666f72206e6f6e657860008201527f697374656e7420746f6b656e0000000000000000000000000000000000000000602082015250565b6000611fd0602c8361194a565b9150611fdb82611f74565b604082019050919050565b60006020820190508181036000830152611fff81611fc3565b9050919050565b7f4552433732313a20617070726f76616c20746f2063757272656e74206f776e6560008201527f7200000000000000000000000000000000000000000000000000000000000000602082015250565b600061206260218361194a565b915061206d82612006565b604082019050919050565b6000602082019050818103600083015261209181612055565b9050919050565b7f4552433732313a20617070726f76652063616c6c6572206973206e6f74206f7760008201527f6e6572206e6f7220617070726f76656420666f7220616c6c0000000000000000602082015250565b60006120f460388361194a565b91506120ff82612098565b604082019050919050565b60006020820190508181036000830152612123816120e7565b9050919050565b7f4552433732313a207472616e736665722063616c6c6572206973206e6f74206f60008201527f776e6572206e6f7220617070726f766564000000000000000000000000000000602082015250565b600061218660318361194a565b91506121918261212a565b604082019050919050565b600060208201905081810360008301526121b581612179565b9050919050565b7f4552433732313a206f776e657220717565727920666f72206e6f6e657869737460008201527f656e7420746f6b656e0000000000000000000000000000000000000000000000602082015250565b600061221860298361194a565b9150612223826121bc565b604082019050919050565b600060208201905081810360008301526122478161220b565b9050919050565b7f4552433732313a2062616c616e636520717565727920666f7220746865207a6560008201527f726f206164647265737300000000000000000000000000000000000000000000602082015250565b60006122aa602a8361194a565b91506122b58261224e565b604082019050919050565b600060208201905081810360008301526122d98161229d565b9050919050565b7f45524337323155524953746f726167653a2055524920717565727920666f722060008201527f6e6f6e6578697374656e7420746f6b656e000000000000000000000000000000602082015250565b600061233c60318361194a565b9150612347826122e0565b604082019050919050565b6000602082019050818103600083015261236b8161232f565b9050919050565b600081905092915050565b60006123888261193f565b6123928185612372565b93506123a281856020860161195b565b80840191505092915050565b60006123ba828561237d565b91506123c6828461237d565b91508190509392505050565b7f4e487b7100000000000000000000000000000000000000000000000000000000600052601160045260246000fd5b600061240c826119f1565b91507fffffffffffffffffffffffffffffffffffffffffffffffffffffffffffffffff820361243e5761243d6123d2565b5b600182019050919050565b7f4552433732313a206f70657261746f7220717565727920666f72206e6f6e657860008201527f697374656e7420746f6b656e0000000000000000000000000000000000000000602082015250565b60006124a5602c8361194a565b91506124b082612449565b604082019050919050565b600060208201905081810360008301526124d481612498565b9050919050565b7f4552433732313a207472616e736665722066726f6d20696e636f72726563742060008201527f6f776e6572000000000000000000000000000000000000000000000000000000602082015250565b600061253760258361194a565b9150612542826124db565b604082019050919050565b600060208201905081810360008301526125668161252a565b9050919050565b7f4552433732313a207472616e7366657220746f20746865207a65726f2061646460008201527f7265737300000000000000000000000000000000000000000000000000000000602082015250565b60006125c960248361194a565b91506125d48261256d565b604082019050919050565b600060208201905081810360008301526125f8816125bc565b9050919050565b600061260a826119f1565b9150612615836119f1565b925082820390508181111561262d5761262c6123d2565b5b92915050565b600061263e826119f1565b9150612649836119f1565b9250828201905080821115612661576126606123d2565b5b92915050565b7f4552433732313a20617070726f766520746f2063616c6c657200000000000000600082015250565b600061269d60198361194a565b91506126a882612667565b602082019050919050565b600060208201905081810360008301526126cc81612690565b9050919050565b7f4552433732313a207472616e7366657220746f206e6f6e20455243373231526560008201527f63656976657220696d706c656d656e7465720000000000000000000000000000602082015250565b600061272f60328361194a565b915061273a826126d3565b604082019050919050565b6000602082019050818103600083015261275e81612722565b9050919050565b7f4552433732314d657461646174613a2055524920717565727920666f72206e6f60008201527f6e6578697374656e7420746f6b656e0000000000000000000000000000000000602082015250565b60006127c1602f8361194a565b91506127cc82612765565b604082019050919050565b600060208201905081810360008301526127f0816127b4565b9050919050565b7f45524337323155524953746f726167653a2055524920736574206f66206e6f6e60008201527f6578697374656e7420746f6b656e000000000000000000000000000000000000602082015250565b6000612853602e8361194a565b915061285e826127f7565b604082019050919050565b6000602082019050818103600083015261288281612846565b9050919050565b60008190508160005260206000209050919050565b60006020601f8301049050919050565b600082821b905092915050565b6000600883026128eb7fffffffffffffffffffffffffffffffffffffffffffffffffffffffffffffffff826128ae565b6128f586836128ae565b95508019841693508086168417925050509392505050565b6000819050919050565b600061293261292d612928846119f1565b61290d565b6119f1565b9050919050565b6000819050919050565b61294c83612917565b61296061295882612939565b8484546128bb565b825550505050565b600090565b612975612968565b612980818484612943565b505050565b5b818110156129a45761299960008261296d565b600181019050612986565b5050565b601f8211156129e9576129ba81612889565b6129c38461289e565b810160208510156129d2578190505b6129e66129de8561289e565b830182612985565b50505b505050565b600082821c905092915050565b6000612a0c600019846008026129ee565b1980831691505092915050565b6000612a2583836129fb565b9150826002028217905092915050565b612a3e8261193f565b67ffffffffffffffff811115612a5757612a56611c3c565b5b612a618254611f43565b612a6c8282856129a8565b600060209050601f831160018114612a9f5760008415612a8d578287015190505b612a978582612a19565b865550612aff565b601f198416612aad86612889565b60005b82811015612ad557848901518255600182019150602085019450602081019050612ab0565b86831015612af25784890151612aee601f8916826129fb565b8355505b6001600288020188555050505b505050505050565b600081519050919050565b600082825260208201905092915050565b6000612b2e82612b07565b612b388185612b12565b9350612b4881856020860161195b565b612b5181611985565b840191505092915050565b6000608082019050612b716000830187611a86565b612b7e6020830186611a86565b612b8b6040830185611b1c565b8181036060830152612b9d8184612b23565b905095945050505050565b600081519050612bb7816118b0565b92915050565b600060208284031215612bd357612bd261187a565b5b6000612be184828501612ba8565b91505092915050565b7f4e487b7100000000000000000000000000000000000000000000000000000000600052601260045260246000fd5b6000612c24826119f1565b9150612c2f836119f1565b925082612c3f57612c3e612bea565b5b828204905092915050565b6000612c55826119f1565b9150612c60836119f1565b925082612c7057612c6f612bea565b5b828206905092915050565b7f4e487b7100000000000000000000000000000000000000000000000000000000600052603260045260246000fd5b7f4552433732313a206d696e7420746f20746865207a65726f2061646472657373600082015250565b6000612ce060208361194a565b9150612ceb82612caa565b602082019050919050565b60006020820190508181036000830152612d0f81612cd3565b9050919050565b7f4552433732313a20746f6b656e20616c7265616479206d696e74656400000000600082015250565b6000612d4c601c8361194a565b9150612d5782612d16565b602082019050919050565b60006020820190508181036000830152612d7b81612d3f565b905091905056fea2646970667358221220e499d02f6c117395ab848aca8c9a02b9859720c8baa4cc247d2cd58a95c448eb64736f6c63430008180033",
  "linkReferences": {},
  "deployedLinkReferences": {}
}